:020000040800F2
:10000000C81E002069010008694E00086B4E0008F8
:10001000754E00087F4E0008894E00080000000061
:10002000000000000000000000000000934E0008E7
:10003000954E000800000000974E0008F770000879
:100040008301000883010008830100088301000880
:100050008301000883010008830100088301000870
:10006000830100081B6F0008736F000883010008FC
:100070008301000883010008830100088301000850
:100080008301000883010008830100088301000840
:10009000994E00088301000883010008CB6F000817
:1000A000830100082B670008830100088301000812
:1000B00083010008830100088301000867640008C9
:1000C0007D600008776400086F6400088301000801
:1000D00083010008830100088301000883010008F0
:1000E0008301000883010008A14E00088301000875
:1000F0009D66000883010008830100088301000851
:100100008301000883010008B56700088301000827
:10011000C3760008830100088301000883010008FA
:10012000830100088301000883010008830100089F
:10013000DFF810D00DF0B4F8004800478D0100083A
:10014000AFF30080C81E0020EFF30980704780F3F2
:1001500009887047EFF30880704780F3088870477C
:1001600040BA7047C0BA7047064880470648004703
:10017000FEE7FEE7FEE7FEE7FEE7FEE7FEE7FEE757
:10018000FEE7FEE7B72A00083101000888B007F053
:1001900043F803F063F90120B04908705CE1B0480E
:1001A000007898B10020AE49087006F08AFF044636
:1001B000AC480068201AAC490860AA48046004F002
:1001C00015FC06F07EFF001BA8490860A8480078CF
:1001D00098B10020A649087006F073FF0446A548B0
:1001E0000068201AA4490860A248046007F031FFA3
:1001F00006F067FF001BA1490860A14800780028AD
:100200007DD000209E49087006F05BFF04469D48A3
:100210000068201A9C4908609A48046000219B48A5
:1002200002F0FCF8994802F0B0FB994908800021DF
:10023000964802F087FB0121944802F0EFF89448B9
:1002400000880CF0A3FD054692490CF09EFB9249F4
:1002500008609249B1F900000CF08FFD0646904805
:10026000016830460CF08BFB05468E490CF08DFB87
:100270008D4908608949B1F902000CF07EFD0646FF
:100280008748416830460CF07AFB054685490CF0FA
:100290007CFB854948608149B1F904000CF06DFD93
:1002A00006467F48816830460CF069FB80F00045C7
:1002B0007C4928460CF069FB7B4988607B49B1F991
:1002C00000000CF05AFD07467948016838460CF0EA
:1002D00056FB06467748016830460CF050FB054651
:1002E00075490CF052FB704948627049B1F902003F
:1002F0000CF043FD07466E484168384600E06CE06C
:100300000CF03DFB06466B48416830460CF037FB6D
:10031000054669490CF039FB634988626349B1F9C4
:1003200004000CF02AFD07466148816838460CF04D
:1003300026FB06465F48816830460CF020FB80F0C3
:1003400000455D4928460CF020FB5749C8625248D9
:10035000006801F124030A460C310090574803F06D
:1003600005F951490868564903F04CFC4E490860AC
:1003700048685349143103F045FC4B49486088688C
:100380004F49283103F03EFC4749886042480268E3
:100390004C4803780846806B496BCDE90532CDE9BE
:1003A00003104148006B404989683F4A52683E4DFE
:1003B000CDE9002102902B68EA6AA96A686A03F015
:1003C000B8FD00203F4908703348006802F054FD32
:1003D00006F077FE001B3C4908603C48007888B175
:1003E00000203A49087006F06CFE04463848006860
:1003F000201A384908603648046006F062FE001B87
:10040000354908603548007888B1002033490870C4
:1004100006F057FE044632480068201A3149086049
:100420002F48046006F04DFE001B2F4908602F483E
:10043000007888B100202D49087006F042FE04467D
:100440002B480068201A2B4908602948046006F0F0
:1004500038FE001B28490860A1E60000A401002026
:100460004801002078010020700100207401002064
:1004700049010020840100207C010020800100202F
:1004800046010020600100205801002000100040BB
:1004900008000020BD370635A0010020B80100206B
:1004A000141A002057E79C3A64040020C40100207D
:1004B000201A00202C1A0020A8B38B39C404002075
:1004C000D00C0020B20100205C0100204701002078
:1004D0006C01002064010020680100204A01002016
:1004E00090010020880100208C0100204B01002099
:1004F0009C0100209401002098010020DF48006842
:1005000040F00100DD49086008464068DC490840C9
:10051000DA49486008460068DA490840D749086067
:100520000846006820F4802008600846406820F4EF
:10053000FE0048604FF41F0088607047CF4909688B
:1005400021F48031CD4A11601146096821F48021DF
:100550001160B0F5803F03D0B0F5802F0ED106E0DA
:10056000C649096841F48031C44A116007E0C349B3
:10057000096841F4A021C14A116000E000BF00BF3A
:10058000704710B501460022002300204A11012ABD
:1005900002D1BA4C236806E0022A02D1B74C236A82
:1005A00001E0B64C636A01F01F02012494401C4034
:1005B0000CB1012000E0002010BD38B500200090F3
:1005C0000024002500BF3120FFF7DBFF054600981F
:1005D000401C00900098B0F5A06F01D0002DF2D023
:1005E0003120FFF7CEFF08B1012400E000242046AF
:1005F00038BD01460020A14A106820F0F80040EA0A
:10060000C10010607047A049086070470246002092
:100610009A4B586820F47C1042EA01031843974B28
:100620005860704798490866704701460020934A11
:10063000506820F003000843506070478F484068BE
:1006400000F00C007047014600208C4A506820F0F2
:10065000F00008435060704701460020874A506808
:1006600020F4E06008435060704701460020834A50
:10067000506820F4605040EAC1005060704729B1D2
:100680007E4A527A02437D4B5A7204E07B4A527A88
:1006900082437A4B5A7270477B49D8310860704761
:1006A00001460020754A506820F4404008435060DD
:1006B00070470021714A20321170704A82F8201070
:1006C000012802D004280AD104E001216B4A20321B
:1006D000117005E00521694A2032117000E000BF69
:1006E00000BF70476949086070476449096A01435F
:1006F000624A11627047654944390860704730B5F5
:1007000000210022002400235C4D6D6805F00C01DF
:1007100021B1042905D0082923D105E05C4D0560ED
:1007200022E05B4D05601FE0544D6D6805F47012CA
:10073000524D6D6805F48034022505EB92421CB9D8
:10074000544D554305600BE04C4D6D6805F4003584
:100750001DB1504D5543056002E04D4D55430560B8
:1007600002E04B4D056000BF00BF444D6D6805F0D1
:10077000F0010909484D6B5C0568DD4045603F4D5F
:100780006D6805F4E061090A434D6B5C4568DD4026
:1007900085603A4D6D6805F46051C90A3E4D6B5C49
:1007A0004568DD40C560354D6D6805F44041890BF5
:1007B0003A4D6B5CC568B5FBF3F5056130BD29B1F9
:1007C0002E4A526902432D4B5A6104E02B4A52696A
:1007D00082432A4B5A61704729B1284A92690243E1
:1007E000264B9A6104E0254A92698243234B9A6121
:1007F000704729B1214AD2690243204BDA6104E0F3
:100800001E4AD26982431D4BDA61704729B11B4AE7
:10081000D2680243194BDA6004E0184AD268824376
:10082000164BDA60704729B1144A12690243134B20
:100830001A6104E0114A12698243104B1A61704731
:1008400012494039086070470F49C86470470B4926
:10085000C87170470948406A40F080700749486293
:10086000704701460020054A92680A400AB10120FB
:1008700000E0002070470149887270470010024074
:100880000000FFF8FFFFF6FE0000424280044242F3
:1008900000127A0000093D000A0000201A00002022
:1008A00010B50446CC48844208D101210420FFF74A
:1008B000ADFF00210420FFF7A9FF46E0C7488442AE
:1008C00008D101210820FFF7A1FF00210820FFF730
:1008D0009DFF3AE0C248844208D101211020FFF771
:1008E00095FF00211020FFF791FF2EE0BD488442C4
:1008F00008D101212020FFF789FF00212020FFF7E8
:1009000085FF22E0B848844208D101214020FFF74A
:100910007DFF00214020FFF779FF16E0B3488442B5
:1009200008D101218020FFF771FF00218020FFF70F
:100930006DFF0AE0AE48844207D101218015FFF720
:1009400065FF0021A015FFF761FF10BD10B5012163
:100950000846FFF75BFF00210120FFF757FF10BD9E
:100960002DE9F04102460025002600200023002446
:10097000002791F803C00CF00F0591F803C00CF0AC
:10098000100CBCF1000F03D091F802C04CEA050531
:1009900091F800C0BCF1000F31D0146800202BE0AA
:1009A0004FF0010C0CFA00F3B1F800C00CEA03069A
:1009B0009E4220D183004FF00F0C0CFA03F7BC438A
:1009C00005FA03FC4CEA040491F803C0BCF1280FBB
:1009D00006D14FF0010C0CFA00FCC2F814C00AE07A
:1009E00091F803C0BCF1480F05D14FF0010C0CFA8F
:1009F00000FCC2F810C0401C0828D1D31460B1F824
:100A000000C0BCF1FF0F34DD546800202EE000F17F
:100A1000080C4FF0010808FA0CF3B1F800C00CEA1A
:100A200003069E4221D183004FF00F0C0CFA03F70E
:100A3000BC4305FA03FC4CEA040491F803C0BCF182
:100A4000280F05D100F1080C08FA0CF8C2F8148040
:100A500091F803C0BCF1480F07D100F1080C4FF02A
:100A6000010808FA0CF8C2F81080401C0828CED300
:100A70005460BDE8F0814FF6FF7101800221817062
:100A80000421C17070470246002093680B400BB1EF
:100A9000012000E0002070470146886880B270475E
:100AA00002460020D3680B400BB1012000E000207B
:100AB00070470146C86880B2704701617047416164
:100AC00070470AB1016100E041617047C160704741
:100AD0004FF480320A438261816182618269826956
:100AE000704702460020434B18684FF68073184049
:100AF00040EA021008433F4B186070473E49C86106
:100B00007047F0B50A46002300240021002500F0BC
:100B10000046B6F1004F02D1364EF16901E0354E84
:100B20007168C0F3034583B200F44016B6F5401F68
:100B300008D121F070612F4E766826F070662D4F37
:100B40007E6012E000F48016B6F5801F06D1032601
:100B500006FA05F4A14341F0706106E0460D360146
:100B600003FA06F6B14341F0706122B1460D360139
:100B700003FA06F6314300F00046B6F1004F02D109
:100B80001C4EF16101E01B4E7160F0BD30B50022DA
:100B90008B071C0F0F2303FA04F2164B08338C103B
:100BA00053F824309343134C08348D1044F8253007
:100BB00023468C1053F824308C07240F00FA04F4D9
:100BC00023430C4C08348D1044F8253030BD0A49BD
:100BD000DC3108607047000000080140000C014053
:100BE000001001400014014000180140001C0140A9
:100BF00000200140000001400000204210B50446E2
:100C0000FB48844209D101218803FFF7FFFD002141
:100C10004FF48040FFF7FAFD32E0F648844209D1F4
:100C200001214804FFF7FFFD00214FF40030FFF7DA
:100C3000FAFD25E0F048844209D101218804FFF73C
:100C4000F2FD00214FF48020FFF7EDFD18E0EB48A6
:100C5000844209D10121C804FFF7E5FD00214FF4CA
:100C60000020FFF7E0FD0BE0E548844208D10121B8
:100C70000805FFF7D8FD00214FF48010FFF7D3FDE2
:100C800010BD2DE9F04786B005460E460024A24669
:100C900000BFA1460027B08900B100BF2F462C8AB3
:100CA0004CF6FF700440F08804432C82AC894EF669
:100CB000F3100440B0883189084371890843044324
:100CC000AC81AC8A4FF6FF400440B0890443AC824B
:100CD00001A8FFF714FDC648874202D1DDF810A035
:100CE00001E0DDF80CA0A88900F4004040B10AEB57
:100CF000CA0000EB0A1031684900B0FBF1F807E0C8
:100D00000AEBCA0000EB0A1031688900B0FBF1F869
:100D10006420B8FBF0F004012009642101FB108974
:100D2000A88900F4004040B1322000EBC900B0FBBC
:100D3000F1F000F00700044308E0322000EB091056
:100D40006421B0FBF1F000F00F0004432C8106B0E9
:100D5000BDE8F0874FF41651016000218180C18009
:100D600001810C21418100218181704710B502462B
:100D70000020108A4FF2FF0318400B884C88234351
:100D80008C882343CC8823431843108210BD002154
:100D9000018041808180C180704721B1828942F405
:100DA0000052828104E082894DF6FF731A408281ED
:100DB0007047F0B50346002400260025002040F6C9
:100DC0006A17B94200D100BF1846C1F3421401F0BE
:100DD0001F06012707FA06F5012C01D10C3004E0AB
:100DE000022C01D1103000E014301AB107682F43F3
:100DF000076002E00768AF430760F0BD1AB1838A5D
:100E00000B43838202E0838A8B4383827047028A8A
:100E10004FF6F0731A400282028A0A430282704738
:100E200082894FF2FF731A40828182890A4382814C
:100E3000704721B1828942F00202828104E08289F6
:100E40004FF6FD731A4082817047028A4FF6DF73B6
:100E50001A400282028A0A430282704721B1028A42
:100E600042F48042028204E0028A4BF6FF731A4089
:100E700002827047C1F30802828070470146888869
:100E8000C0F308007047818941F0010181817047FA
:100E9000028BD2B20283028B42EA012202837047A4
:100EA000028B02F47F420283028B0A430283704763
:100EB00021B1828A42F02002828204E0828A4FF6C7
:100EC000DF731A408282704721B1828A42F0100299
:100ED000828204E0828A4FF6EF731A408282704762
:100EE00021B1828A42F00802828204E0828A4FF6AF
:100EF000F7731A408282704721B1828942F400421E
:100F0000828103E08289C2F30E028281704721B19F
:100F1000828A42F40062828204E0828A4FF2FF7386
:100F20001A4082827047828A4FF6FB731A4082828F
:100F3000828A0A438282704721B1828A42F0020289
:100F4000828204E0828A4FF6FD731A4082827047E3
:100F500002460020B1F5007F00D100BF13880B408E
:100F60000BB1012000E00020704701F40072B2F5DF
:100F7000007F00D100BFCA430280704770B50246AF
:100F8000002400230025002040F66A16B14200D15B
:100F900000BFC1F3421501F01F03012606FA03F357
:100FA000012D02D19689334006E0022D02D1168A26
:100FB000334001E0968A33400C12012606FA04F40D
:100FC0001688344013B10CB1012000E0002070BD40
:100FD00010B50022002340F66A14A14200D100BFE0
:100FE0000A1201249440A3B2DC43048010BD000027
:100FF000003801400044004000480040004C0040E0
:101000000050004031490143314A1160704770B5CA
:10101000002100230F22C47804B32D4C246804F46B
:10102000E064C4F5E064210AC1F10403CA404478D5
:1010300004FA03F18478144021430901254C067811
:10104000A155047804F01F050124AC4005786D110A
:10105000AD0005F1E025C5F8004109E0047804F091
:101060001F050124AC401C4D0678761145F826403A
:1010700070BD1A4A0A400243154B1B1F1A60704785
:1010800039B1134A121D12680243114B1B1D1A601D
:1010900006E00F4A121D126882430D4B1B1D1A6099
:1010A0007047042808D14FF0E021096941F004019C
:1010B0004FF0E022116107E04FF0E021096921F0D3
:1010C00004014FF0E0221161704700000000FA05B2
:1010D0000CED00E000E400E080E100E080FFFF1F95
:1010E000002044490860091D0860091D0860091DA9
:1010F000086041483F4914310860704700213D496C
:101100008279002A3AD00A46126803689A430B464D
:101110001A600A1D126803689A430B1D1A6002794F
:1011200011440A6803681A430A60324A0832126896
:1011300003689A432F4B08331A601A1D126803681C
:101140009A432C4B0C331A604279102A0ED11A1F85
:10115000126803681A43274B08331A601A1D126875
:1011600003681A43234B0C331A600DE0214942797E
:1011700011440A6803681A430A6005E002791144C1
:101180000A6803689A430A60704700210160017190
:101190000C21417100218171704716491031096895
:1011A0000143144A10321160704701460020114A71
:1011B000143212680A400AB1012000E00020704792
:1011C0000C49143108607047014600200022094B89
:1011D0001B6803EA0102074B14331B680B4013B171
:1011E0000AB1012000E00020704702491431086074
:1011F0007047000000040140FFFF0F00014600207F
:10120000FE4A106800F03800084310607047FB4940
:10121000096821F00801F94A116011460968014383
:1012200011607047F549096821F01001F34A116017
:1012300011460968014311607047F148EF49486061
:10124000F04848607047EE48EC494860ED48486017
:101250007047EA48006940F08000E849086170473B
:10126000E648006940F08000E449086170470420C6
:10127000E249C96801F0010109B101200EE0DF492E
:10128000C96801F0040109B1022007E0DB49C9681F
:1012900001F0100109B1032000E00420704700B5FF
:1012A00002460423FFF7E3FF034603E0FFF7DFFFF7
:1012B0000346521E012B01D1002AF7D102B90523A2
:1012C000184600BD30B5044604254FF43020FFF722
:1012D000E6FF0546042D17D1C848006940F002001A
:1012E000C649086108464461006940F04000086151
:1012F0004FF43020FFF7D3FF0546C048006941F6A0
:10130000FD710840BD490861284630BD10B5042470
:101310004FF43020FFF7C3FF0446042C16D1B74822
:10132000006940F00400B54908610846006940F0D2
:10133000400008614FF43020FFF7B1FF0446AF488A
:10134000006941F6FB710840AC490861204610BDB8
:1013500000B502460423FFF78AFF034603E0FFF7C8
:1013600086FF0346521E012B01D1002AF7D102B994
:101370000523184600BD10B504244FF43020FFF7B4
:10138000E7FF0446042C16D19C48006940F0040095
:101390009A4908610846006940F0400008614FF42E
:1013A0003020FFF7D5FF04469448006941F6FB71F1
:1013B000084092490861204610BD00208F49C96944
:1013C00001F0020109B1012000E00020704730B5B2
:1013D000A5250424FFF7F1FF00B100254FF43020CC
:1013E000FFF75DFF0446042C3AD1854883498860A5
:1013F000844888600846006940F02000086108467B
:10140000006940F0400008614FF43020FFF747FFCB
:101410000446042C1BD17948006941F6DF7108406D
:10142000764908610846006940F010000861764876
:101430000580E002FFF733FF0446052C10D06F480B
:10144000006941F6EF7108406C49086108E0052C1D
:1014500006D06A48006941F6EF71084067490861A3
:10146000204630BD78B506460C4604250020009085
:10147000E802FFF714FF0546042D24D15F480069F8
:1014800040F001005D4908613480E802FFF707FF82
:101490000546042D10D1B01C0090200C0099088046
:1014A000E802FFF7FCFE05465448006941F6FE716C
:1014B00008405249086106E05048006941F6FE7153
:1014C00008404E490861284678BD70B504460D466F
:1014D0000426F002FFF7E3FE0646042E11D147482A
:1014E000006940F00100454908612580F002FFF7DE
:1014F000D6FE06464148006941F6FE7108403F4964
:101500000861304670BD70B505460E460424E00201
:10151000FFF7C5FE0446042C17D1394837498860C7
:10152000384888600846006940F0100008612E8045
:10153000E002FFF7B4FE0446052C06D02F480069F0
:1015400041F6EF7108402D490861204670BD2DE934
:10155000F04304464FF6FF763746B046B1460425C1
:10156000E443E6B2C4F30727C4F307484FEA14691B
:10157000E802FFF794FE0546042D49D120481F4993
:101580008860204888600846006940F010000861C3
:10159000FF2E06D01C4808300680E802FFF77FFEC9
:1015A0000546042D08D1FF2F06D017480A300780C2
:1015B000E802FFF774FE0546042D0AD1B8F1FF0FCB
:1015C00007D011480C30A0F80080E802FFF767FE52
:1015D0000546042D0AD1B9F1FF0F07D00A480E3095
:1015E000A0F80090E802FFF75AFE0546052D0FD03F
:1015F0000248006941F6EF71084007E00020024010
:1016000023016745AB89EFCD00F8FF1F66490861EC
:101610002846BDE8F08330B5054604244FF4302059
:10162000FFF73DFE0446042C41D160485E498860C6
:101630005F4888600846006940F02000086108465D
:10164000006940F0400008614FF43020FFF727FEAA
:101650000446042C22D15448006941F6DF71084049
:10166000514908610846006940F0100008611DB149
:1016700000205049088002E0A5204E4908804FF420
:101680003020FFF70CFE0446052C10D046480069B8
:1016900041F6EF7108404449086108E0052C06D086
:1016A0004148006941F6DF7108403F490861204622
:1016B00030BDF0B505460E46174604243B483A496E
:1016C00088603B488860E002FFF7E9FD0446042C8F
:1016D00019D13548006940F010003349086147F0DE
:1016E000F800304328433349891C0880E002FFF7A3
:1016F000D6FD0446052C06D02B48006941F6EF7153
:101700000840294908612046F0BD2748C069800883
:1017100070472548006A704700202349096801F096
:10172000200109B1012000E00020704729B11E4AC4
:10173000126902431C4B1A6104E01B4A126982437E
:10174000194B1A61704701460020012908D1164A39
:10175000D26902F001020AB1012008E0002006E08F
:10176000114AD2680A400AB1012000E00020704707
:101770000D49C860704704200B49C96801F0010198
:1017800009B101200EE00849C96801F0040109B15E
:10179000022007E00449C96801F0100109B10320E3
:1017A00000E004207047000000200240230167454C
:1017B000AB89EFCD00F8FF1F10B50446F74884420F
:1017C00009D101214805FFF72EF800214FF4001040
:1017D000FFF729F808E001218805FFF724F8002128
:1017E0004FF48000FFF71FF810BD2DE9F04385B0DE
:1017F00004460D460026B1460427DFF8A483A688D8
:101800004FF6C07006406846FEF779FFDDF80880A5
:10181000E448B8FBF0F01FFA80F946EA0906A68012
:1018200020884FF6FE71084020800026DE49286897
:1018300088420CD828684000B8FBF0F087B2042F2B
:1018400000DA04273E4309F10100208427E0E888FC
:101850004BF6FF71884206D1286800EB4000B8FBC8
:10186000F0F087B209E0286800EBC00101EB00103E
:10187000B8FBF0F087B247F48047C7F30B0008B914
:1018800047F0010747F4004006434FF4967009FB08
:1018900000F04FF47A7190FBF1F0401C2084A68395
:1018A000208840F00100208026884FF6F530064061
:1018B000A8886989084306432680A889298908439E
:1018C000208105B0BDE8F08341F28831016000213C
:1018D00081804BF6FF71C1800021018141814FF46D
:1018E00080418181704721B1028842F0010202806B
:1018F00004E002884FF6FE731A400280704721B15F
:10190000828842F40062828004E082884FF2FF7392
:101910001A408280704721B1828842F480528280CE
:1019200004E082884EF6FF731A408280704721B12E
:10193000028842F48072028004E002884FF6FF635E
:101940001A400280704721B1028842F4007202807E
:1019500004E002884FF6FF531A400280704721B11D
:10196000028842F48062028004E002884FF6FF336E
:101970001A40028070470A46002181894FF60173A0
:10198000194002F0FE0319438181704721B1828919
:1019900042F00102828104E082894FF6FE731A4010
:1019A0008281704721B1028842F04002028004E047
:1019B00002884FF6BF731A40028070471AB18388BD
:1019C0000B43838002E083888B43838070470182CE
:1019D00070470146088AC0B2704712B141F0010158
:1019E00002E04FF6FE7319400182704708B50246C7
:1019F0000020009000920098084400900098008811
:101A000008BD21B1028842F40042028003E002884E
:101A1000C2F30E0202807047B1F5006F04D1028854
:101A200042F40062028004E002884FF2FF731A4021
:101A300002807047B1F5005F04D1028842F4005281
:101A4000028004E002884DF6FF731A40028070475E
:101A500021B1028842F48052028004E002884EF6EE
:101A6000FF731A4002807047B1F5006F04D10288FD
:101A700042F40062028004E002884FF2FF731A40D1
:101A80000280704721B1028842F02002028004E007
:101A900002884FF6DF731A40028070470146088BB8
:101AA0000012704721B1028842F01002028004E067
:101AB00002884FF6EF731A400280704721B90288FE
:101AC00042F08002028004E002884FF67F731A40E1
:101AD00002807047B1F5804F05D0828B4BF6FF73C3
:101AE0001A40828303E0828B42F4804282837047F3
:101AF00070B502460024002500230020958A138B30
:101B00001B0445EA030626F07F4404EA01068E42E0
:101B100001D1012000E0002070BD10B50146002079
:101B2000002300228B8A0A8B120443EA020424F069
:101B30007F4010BD0CB502460020002301930093A6
:101B400000920B0F019321F07F41019B1BB1009B81
:101B50001433009303E0090C009B18330093009B9F
:101B60001B680B400BB1012000E000200CBD0022DF
:101B700021F07F42D3438382704730B50246002074
:101B80000023948801F0E06504EA154321F07F41C9
:101B9000948A0C4054B14BB1012008E0005400403D
:101BA00000127A0040420F00A0860100002030BDE4
:101BB000002221F07F42D3438382704710B5044650
:101BC000FE48844208D10121C014FEF71FFE002107
:101BD000E014FEF71BFEC4E0B4F1804F08D10121F0
:101BE0000846FEF720FE00210120FEF71CFEB8E0AB
:101BF000F348844208D101210220FEF714FE00219F
:101C00000220FEF710FEACE0EE48844208D101212C
:101C10000420FEF708FE00210420FEF704FEA0E0E9
:101C2000E948844208D101210820FEF7FCFD00218B
:101C30000820FEF7F8FD94E0E448844208D1012131
:101C40001020FEF7F0FD00211020FEF7ECFD88E0EB
:101C5000DF48844208D101212020FEF7E4FD002165
:101C60002020FEF7E0FD7CE0DA48844208D1012123
:101C70004014FEF7CBFD00216014FEF7C7FD70E0B5
:101C8000D548844209D10121C804FEF7BFFD0021D7
:101C90004FF40020FEF7BAFD63E0D048844209D13A
:101CA00001210805FEF7B2FD00214FF48010FEF778
:101CB000ADFD56E0CA48844209D101214805FEF72E
:101CC000A5FD00214FF40010FEF7A0FD49E0C54836
:101CD000844208D101214020FEF7A5FD00214020CB
:101CE000FEF7A1FD3DE0C048844208D101218020DB
:101CF000FEF799FD00218020FEF795FD31E0BB48FD
:101D0000844208D101218015FEF78DFD0021A01528
:101D1000FEF789FD25E0B648844209D10121080477
:101D2000FEF774FD00214FF48030FEF76FFD18E0E0
:101D3000B048844209D101214804FEF767FD002123
:101D40004FF40030FEF762FD0BE0AB48844208D14F
:101D500001218804FEF75AFD00214FF48020FEF790
:101D600055FD10BD00220288944B98420ED0994B2D
:101D700098420BD0B0F1804F08D0914B984205D0DB
:101D8000904B984202D0904B984204D14FF68F73FB
:101D90001A404B881A438D4B984207D08C4B98427F
:101DA00004D04FF6FF431A40CB881A4302808B8839
:101DB00083850B880385814B98420BD0854B9842D5
:101DC00008D08B4B984205D08A4B984202D08A4B60
:101DD000984201D10B7A038601238382704770B544
:101DE000002400220023058C4FF6FE763540058442
:101DF000028C8388048B4FF68F752C40B51E2C40C7
:101E00000D882C43751E2A400D892A434D882A438C
:101E10006A4DA8420BD06F4DA84208D0744DA8421D
:101E200005D0744DA84202D0734DA84213D14FF68D
:101E3000F7752A404D892A434FF6FB752A408D8855
:101E40002A434FF6FF652B404FF6FF552B408D89F7
:101E50002B43CD892B4383800483CD8885860284E0
:101E600070BD70B5002400220023058C4FF6EF767C
:101E700035400584028C8388048B48F6FF752C401E
:101E80004FF6FF452C400D884FF6FF7606EA0525F4
:101E90002C434FF6DF752A400D8906EA05152A43C3
:101EA0004D8806EA05152A43444DA84202D0494D03
:101EB000A8421DD14FF67F752A404D894FF6FF7617
:101EC00006EA05152A434FF6BF752A408D8806EAB3
:101ED00005152A434FF6FF352B404FF2FF752B4077
:101EE0008D8906EA85052B43CD8906EA85052B43B6
:101EF00083800483CD880587028470BD70B500247B
:101F000000220023058C4FF6FF6635400584028CC5
:101F10008388848B4FF68F752C404FF6FC752C40D0
:101F20000D882C434FF6FF552A400D894FF6FF765A
:101F300006EA05252A434D8806EA05252A431F4D52
:101F4000A84202D0234DA8421DD14FF2FF752A406E
:101F50004D894FF6FF7606EA05252A434FF6FF35F1
:101F60002A408D8806EA05252A434EF6FF752B4048
:101F70004DF6FF752B408D8906EA05152B43CD895B
:101F800006EA05152B4383808483CD8885870284E8
:101F900070BD70B5002200230024058C4EF6FF763C
:101FA00035400584038C8488828B48F6FF752A406F
:101FB0004FF6FF452A400D8820E00000002C01402C
:101FC0000004004000080040000C004000100040E9
:101FD0000014004000340140004C0140005001401A
:101FE0000054014000180040001C00400020004048
:101FF0000040014000440140004801404FF6FF7698
:1020000006EA05252A434DF6FF752B400D8906EAA1
:1020100005352B434D8806EA05352B43FA4DA8427A
:1020200002D0FA4DA84208D14BF6FF752C408D899D
:102030004FF6FF7606EA85152C4384808283CD888F
:10204000A0F84050038470BD828B4FF2FF331A40DA
:102050008283828B4FF6FF7303EA01231A43828344
:102060007047F0B50C461546002200210026078C6B
:102070004EF6FF7C07EA0C070784828B018C4FF633
:10208000FF7707EA043640F6FF473A404FF6FF77FE
:1020900007EA05273A434FF6FF7707EA03373A4343
:1020A000D94FB8420ED0D94FB8420BD0B0F1804FC3
:1020B00008D0D74FB84205D0D64FB84202D0D64F3D
:1020C000B84206D14DF6FF77394046F48057394380
:1020D00005E047F6FF57394044F48057394382837F
:1020E0000184F0BD828B4FF6F3731A408283828B9A
:1020F0000A4382837047F0B50C4615460022002142
:102100000026078C4FF6FF6C07EA0C070784828BCA
:10211000018C4FF6FF7707EA04264FF60C773A401A
:102120004FF6FF7707EA03172F433A43B64FB842FB
:102130000ED0B64FB8420BD0B0F1804F08D0B44F9C
:10214000B84205D0B34FB84202D0B34FB84206D11F
:102150004FF6FF57394046F48077394305E04FF298
:10216000FF57394044F48077394382830184F0BDBE
:10217000028B4FF2FF331A400283028B4FF6FF733C
:1021800003EA01231A4302837047F0B50C46154653
:10219000002200210026078C4FF6EF7C07EA0C078F
:1021A0000784028B018C4FF6FF7707EA041640F68E
:1021B000FF473A404FF6FF7707EA03373A434FF6B7
:1021C000FF7707EA05273A438F4FB8420ED08F4F6B
:1021D000B8420BD0B0F1804F08D08D4FB84205D037
:1021E0008C4FB84202D08C4FB84206D14FF6DF7701
:1021F000394046F01007394305E04FF65F77394024
:1022000044F01007394302830184F0BD028B4FF67E
:10221000F3731A400283028B0A4302837047F0B5BE
:102220000C46154600220021068C4FF6FE773E40F4
:102230000684028B018C4FF60C7632407E1C06EA37
:1022400003162E433243704EB0420ED06F4EB04252
:102250000BD0B0F1804F08D06D4EB04205D06D4E1E
:10226000B04202D06C4EB04206D14FF6FD763140FE
:1022700044F00106314305E04FF6F576314044F075
:102280000106314302830184F0BD70B505460C465A
:102290005D4885420ED05D4885420BD0B5F1804F38
:1022A00008D05B48854205D05A48854202D05A483A
:1022B000854200D100E000BF208850B92389A28860
:1022C00061882846FFF7ABFFE1882846FFF79EFFAD
:1022D00025E0208804280AD12389A288618828461D
:1022E000FFF753FFE1882846FFF742FF17E02088F9
:1022F00008280AD12389A28861882846FFF7FBFEB7
:10230000E1882846FFF7EEFE09E02389A28861886C
:102310002846FFF7A6FEE1882846FFF795FE70BD28
:102320002DE9F04105460C4600260127608808B9D2
:10233000022600E00026A088012801D1022700E043
:1023400001272088A0B92389A28861882846FFF741
:1023500066FFE1882846FFF759FF23893A46314650
:102360002846FFF712FFE1882846FFF701FF13E038
:102370002389A28861882846FFF707FFE18828465D
:10238000FFF7F6FE23893A4631462846FFF747FF16
:10239000E1882846FFF73AFFBDE8F0810A884B88BC
:1023A0001A438B881A43CB881A430B891A434B89EB
:1023B0001A438B891A43A0F8442070474FF6FF71E7
:1023C000818000210180C18041800172704700211D
:1023D000018041808180C180018141818181C181F1
:1023E0007047002101804180012181800021C1804E
:1023F000018170470021018041808180C18001817D
:102400004181818170470000002C0140003401406F
:102410000004004000080040000C004021B1028888
:1024200042F00102028004E002884FF6FE731A4077
:102430000280704731B1B0F8442042F40042A0F865
:10244000442005E0B0F84420C2F30E02A0F8442076
:1024500070471AB183890B43838102E083898B43E0
:10246000838170478182704741EA0203A0F84830B7
:1024700070471AB183890B43838102E083898B43C0
:102480008381704701894FF6F872114001817047CE
:102490000A46002101894FF68F73194011430181CB
:1024A000704730B504460D4629462046FFF7F0FF39
:1024B000208940F00700208130BD2DE9F04104461D
:1024C0000D4616461F46602D06D13B460122314679
:1024D0002046FFF75AFE05E03B46012231462046E2
:1024E000FFF79DFE29462046FFF7D2FF208940F0E6
:1024F00007002081BDE8F08130B50C46002101893C
:10250000C9B24FF6FF7505EA032515432543294354
:10251000018130BD2DE9F04105460E46174698462B
:10252000002443463A4631462846FFF7E5FF2C890A
:102530004FF6F870044044F007044FF68F700440E3
:1025400044F070042C81BDE8F081F0B504460D46DE
:1025500016461F463B46324629462046FFF7CCFF2B
:10256000208940F480402081F0BD0185828270473F
:102570000A46002101884FF68F73194011430180EC
:102580007047F0B50C4615461E4600210022002378
:102590000189028B038C4FF6F877394021434FF6BF
:1025A000FC473A4040F201173A434FF6DD773B4093
:1025B0004FF6FF7707EA06172F433B43018102835B
:1025C0000384F0BD0A460021018B4FF68F7319403A
:1025D0001143018370470A460021018B48F6FF73BF
:1025E00019404FF6FF7303EA022319430183704732
:1025F0000A460021818B4FF68F7319401143818366
:1026000070470A460021818B48F6FF7319404FF648
:10261000FF7303EA022319438183704721B10288C3
:1026200042F08002028004E002884FF67F731A4075
:102630000280704721B1828842F00402828004E067
:1026400082884FF6FB731A408280704721B18288DE
:1026500042F00802828004E082884FF6F7731A4045
:102660008280704721B1828842F00102828004E0BA
:1026700082884FF6FE731A40828070470A46002116
:10268000018B4FF6F77319401143018370470A46D7
:102690000021018B4FF2FF7319404FF6FF7303EADD
:1026A00002231943018370470A460021818B4FF6AC
:1026B000F77319401143818370470A460021818BCB
:1026C0004FF2FF7319404FF6FF7303EA02231943D9
:1026D000818370470A460021018B4FF6FB73194036
:1026E0001143018370470A460021018B4FF6FF33E7
:1026F00019404FF6FF7303EA022319430183704721
:102700000A460021818B4FF6FB73194011438183E8
:1027100070470A460021818B4FF6FF3319404FF670
:10272000FF7303EA02231943818370470A4600219D
:10273000018B4FF67F7319401143018370470A469E
:102740000021018BC1F30E014FF6FF7303EA022350
:102750001943018370470A460021818B4FF67F732E
:1027600019401143818370470A460021818BC1F3D0
:102770000E014FF6FF7303EA02231943818370476A
:102780000A460021018C4FF6FD7319401143018464
:1027900070470A460021018C4FF6F7731940114328
:1027A000018470470A460021018C4FF6DF731940FF
:1027B0004FF6FF7303EA02131943018470470A4678
:1027C0000021018C4FF67F7319404FF6FF7303EA27
:1027D00002131943018470470A460021018C4FF609
:1027E000FF5319404FF6FF7303EA02231943018494
:1027F00070470A460021018C4FF2FF7319404FF6D3
:10280000FF7303EA02231943018470470A4600213B
:10281000018C4DF6FF7319404FF6FF7303EA023344
:1028200019430184704730B5002301248C40A3B2C2
:10283000048C9C430484048C02FA01F5ADB22C4351
:10284000048430BD30B5002304248C40A3B2048C32
:102850009C430484048C02FA01F5ADB22C43048439
:1028600030BD70B5034600200024184618300125FD
:102870008D40ACB21D8CA5431D8409B1082909D136
:1028800000EB6100056825F07005056005681543DB
:1028900005600EE00D1FC5F34E052844056825F4BC
:1028A000E045056005684FF6FF7606EA02263543E7
:1028B000056070BD21B1028842F00202028004E08E
:1028C00002884FF6FD731A400280704721B10288DA
:1028D00042F00402028004E002884FF6FB731A40C3
:1028E0000280704721B1828842F08002828004E039
:1028F00082884FF67F731A408280704702884FF6B5
:10290000F7731A40028002880A4302807047828867
:102910004FF68F731A40828082880A438280704704
:1029200002894FF6F8731A40028102890A43028134
:10293000704702894FF67F731A40028102890A4369
:102940000281704781847047818570478186704716
:102950000187704781877047A0F840107047028850
:102960004FF6FF431A40028002880A4302807047F4
:102970000146888E70470146088F70470146888F50
:1029800070470146B1F8400070470146888C704797
:102990000146088D704702460020138A0B400BB198
:1029A000012000E000207047CA430282704730B522
:1029B0000246002000230024158A05EA01039589B8
:1029C00005EA010413B10CB1012000E0002030BD84
:1029D000CA430282704700000CB5002001900090AD
:1029E0006C48006840F480306A49086000BF69485C
:1029F000006800F4003000900198401C019000989D
:102A000018B90198B0F5A06FF1D16248006800F4E0
:102A1000003010B10120009001E0002000900098EB
:102A2000012843D15C48006840F010005A49086012
:102A30000846006820F0030008600846006840F07F
:102A400002000860534840685249486008464068A0
:102A500048600846406840F4806048600846406826
:102A600020F47C1048600846406840F4E810486054
:102A70000846006840F08070086000BF4548006864
:102A800000F000700028F9D04248406820F00300B0
:102A9000404948600846406840F00200486000BF76
:102AA0003C48406800F00C000828F9D10CBD10B576
:102AB000FFF792FF10BD10B53648006840F00100E6
:102AC0003449086008464068344908403149486044
:102AD00008460068324908402E49086008460068E8
:102AE00020F4802008600846406820F4FE0048601A
:102AF0004FF41F008860FFF7DAFF4FF000602949AC
:102B0000086010BD10B5002100200022214B5B6839
:102B100003F00C0121B1042906D0082928D107E0CF
:102B2000214B224C236027E01F4B204C236023E0E5
:102B3000184B5B6803F47010164B5B6803F480322B
:102B4000022303EB904022B9194B4343174C2360F7
:102B50000DE0104B5B6803F4003323B1144B434387
:102B6000124C236003E0104B4343104C236003E0FE
:102B70000D4B0E4C236000BF00BF064B5B68C3F3D8
:102B800003130C4CE15C094B1B68CB40074C2360E2
:102B900010BD000000100240002002400000FFF8BD
:102BA000FFFFF6FE08ED00E000127A002000002092
:102BB00000093D00240000208449854A116000205E
:102BC0001AE0002200EB8003824901EBC3010A6195
:102BD00000EB80037F4901EBC3018A6100EB8003B6
:102BE0007C4901EBC301CA6100EB8003794901EB29
:102BF000C3010A62411CC8B20328E2DB70472DE919
:102C0000FF4F87B082468B461546149C5946504666
:102C100009F0B5FE064694F82500012803D1304698
:102C200002F010FF06460A9890B92946304609F08E
:102C3000ACFE0690216909F050FE2061606980F0C9
:102C400000400690D4E90402069902F065F920617B
:102C500094F8240001280AD13046A16909F08FFEBA
:102C60002946069009F0C3FE0746A66112E05946C0
:102C7000A06909F084FE2946069009F0B8FE0746CF
:102C800094F82500012803D1384602F0DBFE074600
:102C9000C4F818B03846E16909F071FE294605907C
:102CA0004B48006809F019FE01460390284609F0D8
:102CB0009EFE0490059909F068FE0690E16909F00E
:102CC0000CFE80464046E16909F007FE0590216A46
:102CD00009F003FE4049069009F057FE8146E0697D
:102CE0002062C4F81C8094F82500012818D14946B8
:102CF000E06809F04AFE06902169A06809F045FEE7
:102D000004903146606809F040FE0390049909F090
:102D1000E4FD0590069909F0E0FD0BB0BDE8F08FE9
:102D20005946606809F031FE06904946E06809F0AE
:102D30002CFE04902169A06809F027FE0290D4E9D6
:102D4000001009F022FE5146009009F01EFE01908D
:102D5000029909F0C2FD0390049909F0BEFD0590A7
:102D6000069909F00CFED8E700EB8003194A02EB44
:102D7000C3021161704710B5002405E00021204610
:102D8000FFF7F2FF601CC4B2032CF7DB10BD00EBB1
:102D90008003104A02EBC302916100EB80030D4AED
:102DA00002EBC302D16100EB80030A4A02EBC302CB
:102DB0001162704710B5002405E000212046FFF79E
:102DC000E6FF601CC4B2032CF7DB10BD3661023C89
:102DD000380000207C0300209FAAAA3E2DE9F04184
:102DE00004460D464FF08041C648006809F0C7FD13
:102DF000064621460AF046F80AD24FF08040C14903
:102E00000860C149204609F0C0FDC04908601AE0C9
:102E10004FF08041BB48006809F05FFD064621463F
:102E20000AF026F80AD24FF04040B6490860B64989
:102E3000204609F0AAFDB549086004E00020B34926
:102E40000860B0490860B249B248006809F09DFDC9
:102E50000746AE480168384609F03FFD0646AE49D0
:102E600009F0C5FDAB49086008460168284609F02D
:102E700086FD0546BDE8F081F8B504460020A74967
:102E80000870A748806980F00046A648016830466F
:102E900009F07BFD0546A34A1168A34A106809F0B2
:102EA00074FD0746A14800909C48037822462946B5
:102EB0003846FFF7A4FE9E4908609E4A11689C4A66
:102EC000106809F05CFD9C490860984A5C3AD2F8A9
:102ED000F410994A106809F0D5FF09D2934A5C3A78
:102EE000D2F8F410934A106809F0F7FC9049086092
:102EF0008E485C38D0F8F40080F000458E480168B8
:102F0000284609F0BFFF09D2884A5C3AD2F8F4108B
:102F1000884A106809F033FD8549086084480068D4
:102F20008449086081495C39D1F8D40009F044FF34
:102F300005467F490868294603F034FE7B485C3823
:102F400090F8E10001285AD1764A5168744AD06954
:102F500009F01BFD0546734A5168734A506809F031
:102F600014FD06467148283000906C4803782246CC
:102F700029463046FFF743FE6D4948606D4A516867
:102F80006B4A506809F0FBFC6B494860674A5C3A41
:102F9000D2F8F410684A506809F074FF09D2634A05
:102FA0005C3AD2F8F410634A506809F096FC604924
:102FB00048605E485C38D0F8F40080F000455E4818
:102FC0004168284609F05EFF09D2584A5C3AD2F8B7
:102FD000F410584A506809F0D2FC554948605448EA
:102FE00040685449486051495C39D1F8D80009F02B
:102FF000E3FE05464E494868294603F0E3FD4B4889
:103000005C3890F8E20001287BD148485C3890F8A1
:10301000E500012814D1434881684848006809F058
:10302000B4FC0646424988683146FFF7D7FE05469C
:1030300043488168284609F0A8FC4049086005E03B
:103040003948806880F000403C490860354A916802
:10305000334A106A09F099FC0546324881683748BE
:10306000006809F092FC06463048503000902B482A
:103070000378224629463046FFF7C1FD2C49886077
:103080002C4A91682A4A906809F079FC2A4988609C
:10309000264A5C3AD2F8F410274A906809F0F2FE0A
:1030A00009D2224A5C3AD2F8F410224A906809F018
:1030B00014FC1F4988601D485C38D0F8F40080F08B
:1030C00000451D488168284609F0DCFE09D2174AF0
:1030D0005C3AD2F8F410174A906809F050FC144991
:1030E0008860134880681349886010495C39D1F8BA
:1030F000DC0009F061FE05460D498868294603F0A9
:1031000075FDF8BD580000203333B33E6000002049
:1031100000001C425C00002000002042340000201F
:10312000640400203C000020840D00207C0300206B
:10313000AC040020B8040020A004002054000020AB
:10314000480000202DE9F0474FF4A272AF49B04883
:1031500009F098FBAE49086C09F05BFE06460BF0DF
:1031600091FC044622460B460020AA4909F096FD30
:10317000804609F061FEA8490860A549D1F8E80039
:103180004FF0804109F033FCA4490860A049D1F810
:10319000EC004FF0804109F02AFCA04948609C49AE
:1031A000D1F8F0004FF0804109F021FC9B49886084
:1031B000084601684FF07E5009F019FC98490860F4
:1031C000964841684FF07E5009F011FC94494860E0
:1031D000924881684FF07E5009F009FC9049886060
:1031E000BDE8F08770B5FEF728F83420FEF7C0FA86
:1031F0008648FEF767F8042810D100240AE0844AC4
:103200001159824AA018FEF72DF90546042D00D069
:1032100003E0241DB4F5A27FF1D300BFFEF719F837
:10322000FFF790FF70BD70B50446784805781CB96B
:103230007C48007885427DD07A48007874490870CF
:1032400000204860002172488160C1600020704900
:10325000086100216E484161816100206C49C861AC
:1032600000216B48016241620020694988620021A7
:103270006748C162016300206549486300216448D2
:103280008163C1634FF07E506149086466484864B9
:10329000002088646448C86400200865022081F822
:1032A0005400624888654FF07E50C86560495848B0
:1032B00001665D4941665F4981660021C1665E49DC
:1032C0000167002141678167C167012180F8801093
:1032D000002180F881104FF07E51C0F884105749CA
:1032E000C0F888105049C0F88C105549C0F89010AB
:1032F0000021C0F894105049C0F898100021C0F87F
:103300009C10C0F8A010C0F8A410012180F8A810EB
:10331000002180F8A9104FF07E51C0F8AC1044494C
:10332000C0F8B0104049C0F8B4104249C0F8B81015
:10333000002100E069E0C0F8BC103F49C0F8C010AF
:103340000021C0F8C410C0F8C810C0F8CC1001218A
:1033500080F8D010002180F8D1103A482C49C1F8EB
:10336000D400C1F8D800C1F8DC00012081F8E000E9
:10337000002081F8E10081F8E20081F8E30081F8A3
:10338000E40081F8E500042081F8E6002E48C1F849
:10339000E800C1F8EC00C1F8F0002C48C1F8F400D6
:1033A000012081F8F80081F8F90081F8FA00284836
:1033B000C1F8FC00C1F80001C1F804012548C1F8BA
:1033C0000801C1F80C01C1F810012348C1F814012B
:1033D0002048C1F81801C1F81C011648C1F82001A5
:1033E000C1F82401C1F828010020C1F82C01C1F85E
:1033F0003001C1F834014FF07A50C1F83801C1F8FA
:103400003C01C1F84001FFF7EDFE70BD00F8030874
:10341000200300200000F03FE00000203C000020DE
:1034200048000020640000200000A04000803B45D0
:1034300000002041CDCCCC3D00007A44000020406B
:10344000CDCC4C3D00005C4200006041DB0F493FA9
:10345000C2B8323F368DA73F920A063F2DE9FE43A0
:103460009624002000900190029000256FE004F067
:10347000CEFA04F067FA8B49B1F9000009F07DFC3F
:10348000074689480168384609F079FA06468749AF
:1034900009F07BFA864908608249B1F9020009F017
:1034A0006CFC074680484168384609F068FA0646D1
:1034B0007E4909F06AFA7E4948607A49B1F9040008
:1034C00009F05BFC074678488168384609F057FAEE
:1034D00080F000467549304609F057FA7449886013
:1034E0000846806880F000470846406880F0004841
:1034F000394640460AF0A8FF0646009909F0EDF962
:1035000000906B48806880F0004769490868394638
:103510000AF09AFF0646019909F0DFF9019020466A
:1035200009F02BFC06463146009809F060FA614923
:103530000860204609F021FC06463146019809F052
:1035400056FA5C494860022003F0FFFE6D1CA5425C
:103550008DDB584841685648016156480068544917
:10356000C860002152484161BDE8FE832DE9F04F5B
:1035700087B005460C4617461E46B86880F00048DE
:10358000786880F00049414648460AF05DFF0490A3
:10359000B86880F00048414638680AF055FF059049
:1035A0004549286809F0F1F98146049909F095F92F
:1035B0008046424909F01BFA28603F49686809F0D3
:1035C000E4F98146059909F088F980463B4909F0FC
:1035D0000EFA6860706802906168686809F0CFF957
:1035E0008246374909F0D1F981461099029809F0CD
:1035F000CCF98246616809F070F98046494609F0C5
:103600006CF9606060680BF079F98246B16809F086
:10361000BCF98046606820F0004B58460BF066F815
:103620008246316809F0B1F98146414609F055F901
:1036300001902168286809F0A2F98246204909F022
:10364000A4F980461099019809F09FF982462168F3
:1036500009F043F98146414609F03FF9206060686E
:103660000BF04CF98246316809F08FF980466068AA
:1036700020F0004B58460BF039F88246B16809F04B
:1036800084F98146414609F07AF90390109903982C
:1036900009F07BF98046A16809F01FF9A06007B026
:1036A000BDE8F08FBE010020141A002057E79C3AB5
:1036B00064040020C40400200000C6420000C84288
:1036C00017B751392DE9F04700241EE0204609F0D4
:1036D00054FB0746324909F058F906464FF0894134
:1036E00009F085F9054628460BF008F981462D4971
:1036F00009F04BF9064609F08CFB07460BF0B4F8CD
:1037000000B2294921F81400641CB4F5806FDDDB98
:10371000BDE8F0872DE9F04705460021284609F06D
:10372000B1FB1DD81E49284609F061F980464FF0CB
:10373000894109F02AF9074609F03EFB0446C01703
:1037400004EB90508012A4EB8026174931F9160043
:1037500009F013FB0446134909F049F9BDE8F08765
:1037600085F000490E49484609F041F980464FF07E
:10377000894109F00AF9074609F01EFB0446C01703
:1037800004EB90508012A4EB8026074931F9161003
:10379000484209F0F2FA0446024909F028F9DDE747
:1037A000DB0FC94000FEFF46D004002070B5FE4884
:1037B000D0F820114FF0804009F0E7F80546FB49AA
:1037C00009F0E3F8044621464FF07E5009F085F8F1
:1037D000054629464FF07E5009F009F9F449086082
:1037E00021464FF07E5009F078F8054629464FF003
:1037F0007E5009F0FCF8EE49486021464FF07E50BB
:1038000009F06BF8054621464FF07E5009F0B7F8F5
:103810000646294609F0EBF8E54988600020C860B3
:103820000861E148D0F824114FF0804009F0ADF86C
:103830000546DE4909F0A9F8044621464FF07E50BE
:1038400009F04BF8054629464FF07E5009F0CFF8B5
:10385000D749486121464FF07E5009F03EF80546B1
:1038600029464FF07E5009F0C2F8D14988612146BF
:103870004FF07E5009F031F8054621464FF07E505A
:1038800009F07DF80646294609F0B1F8C849C86133
:103890000021C74801624162C348D0F828114FF0A7
:1038A000804009F072F80546C04909F06EF80446F8
:1038B00021464FF07E5009F010F8054629464FF09A
:1038C0007E5009F094F8BA49886221464FF07E5044
:1038D00009F003F8054629464FF07E5009F087F8B5
:1038E000B349C86221464FF07E5008F0F6FF054606
:1038F00021464FF07E5009F042F80646294609F06D
:1039000076F8AB490863AB49A94841638163A6488F
:10391000D0F82C114FF0804009F037F80546A64941
:1039200009F033F8044621464FF07E5008F0D5FFE9
:10393000054629464FF07E5009F059F89C49C86366
:1039400021464FF07E5008F0C8FF054629464FF04B
:103950007E5009F04CF89649086421464FF07E509D
:1039600008F0BBFF054621464FF07E5009F007F8EE
:103970000646294609F03BF88D49486400218C48E9
:103980008164C1648848D0F830114FF0804008F05D
:10399000FCFF0546884908F0F8FF044621464FF031
:1039A0007E5008F09AFF054629464FF07E5009F0F8
:1039B0001EF87F49086521464FF07E5008F08DFFC4
:1039C000054629464FF07E5009F011F878494865C0
:1039D00021464FF07E5008F080FF054621464FF00B
:1039E0007E5008F0CCFF0646294609F000F87049E1
:1039F000886500216E48C16501666B48D0F83411B6
:103A00004FF0804008F0C1FF05466B4908F0BDFF4C
:103A1000044621464FF07E5008F05FFF05462946D8
:103A20004FF07E5008F0E3FF6149486621464FF0B1
:103A30007E5008F052FF054629464FF07E5008F0B0
:103A4000D6FF5B49886621464FF07E5008F045FF5F
:103A5000054621464FF07E5008F091FF0646294664
:103A600008F0C5FF5249C866002151480167416707
:103A70004D48D0F838114FF0804008F086FF0546D9
:103A80004D4908F082FF044621464FF07E5008F071
:103A900024FF054629464FF07E5008F0A8FF444910
:103AA000886721464FF07E5008F017FF05462946EB
:103AB0004FF07E5008F09BFF3D49C86721464FF00C
:103AC0007E5008F00AFF054621464FF07E5008F070
:103AD00056FF0646294608F08AFF3549C1F880009E
:103AE00000213348C0F88410C0F888102E48D0F860
:103AF0003C114FF0804008F048FF05462E4908F081
:103B000044FF044621464FF07E5008F0E6FE05468D
:103B100029464FF07E5008F06AFF2549C1F88C0015
:103B200021464FF07E5008F0D8FE054629464FF05A
:103B30007E5008F05CFF1E49C1F8900021464FF00E
:103B40007E5008F0CAFE054621464FF07E5008F030
:103B500016FF0646294608F04AFF1549C1F89400A9
:103B600000211348C0F89810C0F89C100E48D0F8F7
:103B700040114FF0804008F008FF05460E4908F05C
:103B800004FF044621464FF07E5008F0A6FE05468D
:103B900029464FF07E5008F02AFF0549C1F8A000E1
:103BA00021464FF07E5009E0200300200000FA4338
:103BB000D00C00206DE71CC10000484208F08DFECB
:103BC000054629464FF07E5008F011FF1D49C1F807
:103BD000A40021464FF07E5008F07FFE05462146A6
:103BE0004FF07E5008F0CBFE0646294608F0FFFE57
:103BF0001449C1F8A80000211248C0F8AC10C0F860
:103C0000B01070BD2DE9F04705460C462169A0684B
:103C100008F0BBFE8046E168606808F0B6FE8146A9
:103C20002846216808F0B1FE8246494608F055FE54
:103C30000746414608F0A3FE0646E5602661304689
:103C4000BDE8F087D00C00202DE9F04F87B0824608
:103C5000FE480168504608F0CAFE8246FC495046BC
:103C600008F093FE0446FB49FB48006808F08DFE0F
:103C70000546214608F031FE8246F748C0F800A00C
:103C80004FF07E51504608F07AFE019009F0C1F8DD
:103C900021F00041CDE902010AF0F4FE8046894698
:103CA000EE48006809F0B5F842464B46CDE90401FC
:103CB00008F082FF06460022E94B08F07AFF04462E
:103CC00009F0BAF883464FF07E52002101F024F942
:103CD000E449086007B0BDE8F08F2DE9FF4F8DB0D3
:103CE0008B4692468AF00048404609F092F8044616
:103CF0000D468BF00048404609F08BF822462B46D3
:103D0000CDE900010AF0D2FA064609F095F80C90C8
:103D10008AF00040019009F07CF806460F460D98A5
:103D200009F077F8804632463B460AF0BFFA04466F
:103D300009F082F80B900C980AF0D8FC0A900C98C5
:103D40000AF0DCFD09900B980AF0D0FC08900B9863
:103D50000AF0D4FD07904FF07E50069000200590A9
:103D6000059880F00044204606990AF06DFB049007
:103D70004FF07C510C9808F008FE04460AF0B6FC9F
:103D80000A904FF07C510C9808F0FFFD04460AF0B1
:103D9000B5FD09904FF07C510B9808F0F6FD0446F4
:103DA0000AF0A4FC08904FF07C510B9808F0EDFD50
:103DB00004460AF0A3FD07904FF07C51049808F0E8
:103DC000E4FD04460AF092FC03904FF07C51049805
:103DD00008F0DBFD04460AF091FD0290079909986E
:103DE00008F0D3FD0646029908F0CFFD0446089975
:103DF0000A9808F0CAFD0646039908F0C6FD054674
:103E0000214608F06AFD9849086007990A9808F069
:103E1000BCFD0646029908F0B8FD0446DDE908102D
:103E200008F0B3FD0646039908F0AFFD05462146AC
:103E300008F0A5FD8D490860DDE9081008F0A5FD32
:103E40000646029908F0A1FD044607990A9808F071
:103E50009CFD0646039908F098FD0546214608F0AA
:103E60003CFD834908600799099808F08EFD0646D5
:103E7000039908F08AFD044608990A9808F085FD20
:103E80000646029908F081FD0546214608F077FDB7
:103E90007849086074480168006808F076FD764942
:103EA0000860724801687048006808F06EFD734948
:103EB00008606F4801686C48006808F066FD70494A
:103EC00008606C4801686848006808F05EFD6D494C
:103ED000086066480168006808F057FD6A49086094
:103EE000634801686148006808F04FFD6749086051
:103EF000604801685D48006808F047FD6449086053
:103F00005B480168006808F040FD62490860594854
:103F100001685748006808F038FD5F490860554857
:103F20000168006808F031FD5C49086011B0BDE827
:103F3000F08F0FB59FB05A48007858B9DDE92701D6
:103F4000CDE9000124A90EC92298FFF7C6FE012081
:103F50005349087052480078012875D14FF07C51C0
:103F60002A9808F012FD4F4908602599084608F084
:103F70000CFD08902499084608F007FD0690229948
:103F8000084608F002FD0590069908F0A6FC079087
:103F9000089908F0A2FC099008F03BFFCDE90A015E
:103FA0000AF070FDCDE90C0108F046FF1E900021DB
:103FB0001E9808F05DFF48D01E98FFF745FE3A486E
:103FC000406C0D90274801680D9808F0DEFC3749D9
:103FD00008603548806C0D90224801680D9808F003
:103FE000D4FC334908604FF07E501E9908F0FFFC66
:103FF0001D901D99229808F0C8FC22901D992498C4
:1040000008F0C3FC24901D99259808F0BEFC25906B
:104010001B4801681E48006808F0B1FC4FF0804161
:104020000D9008F0B2FC17901B4801681348006817
:1040300008F053FC4FF080410D9008F0A6FC16905C
:10404000114801680C4835E0FEE3D3E0B4010020DC
:10405000CDCCCC3D6666663FE8000020E000002045
:104060000000F03FE4000020A0000020A400002099
:10407000A8000020AC000020B0000020B400002008
:10408000B8000020BC000020C0000020C4000020B8
:10409000C8000020CC000020D0000020D400002068
:1040A000DC000020D8000020200300209800002021
:1040B0009C000020006808F062FC0C90FE4801683B
:1040C0000C9808F05CFC0D90FC4801680D9808F015
:1040D00004FC15902499159808F057FC0D9025992B
:1040E000169808F052FC0C900D9908F048FCF44921
:1040F00008602599179808F048FC0D9022991598AA
:1041000008F043FC0C900D9908F039FCED4908606B
:104110002299169808F039FC0D902499179808F008
:1041200034FC0C900D9908F02AFCE7490860E74838
:104130000168E348006808F028FC0D901F9908F01A
:10414000CCFB1F90E1480168DE48006808F01DFCC8
:104150000D90209908F0C1FB2090DC480168DA48F6
:10416000006808F012FC0D90219908F0B6FB219030
:104170000021D748006808F085FE3BD2D44801688A
:10418000CF48006808F001FC0D90D24801680D98F6
:1041900008F0A3FBCF490860CD480168C948006812
:1041A00008F0F3FB0D90CC4801680D9808F095FBE2
:1041B000C9490860C6480168C348006808F0E5FBC3
:1041C0000D90C64801680D9808F087FBC349086048
:1041D000C04801681F9808F080FB1F90BE48016826
:1041E000209808F07AFB2090BC480168219808F0DC
:1041F00074FB21902899084608F0C7FB089027997E
:10420000084608F0C2FB06902699084608F0BDFB58
:104210000590069908F061FB0790089908F05DFB8E
:10422000099008F0F6FDCDE90A010AF02BFCCDE972
:104230000C0108F001FE1E90299801287ED1002172
:104240001E9808F015FE79D04FF07E501E9908F0A8
:10425000CEFB1D901D99269808F097FB26901D997E
:10426000279808F092FB27901D99289808F08DFB5D
:1042700028909B4801689B48006808F02EFB0A9034
:10428000289908F082FB0C909748016897480068CD
:1042900008F075FB0890279908F077FB0A9086488C
:1042A00001684FF07C5008F06AFB07908348016872
:1042B000079808F064FB0890269908F066FB0990BF
:1042C0000A9908F00AFB0B900C9908F006FB4FF0D6
:1042D00080410D9008F059FB1C9085480168854885
:1042E000006808F04CFB0A90289908F04EFB0C90EF
:1042F000814801684FF07C5008F041FB07906F48FF
:104300000168079808F03BFB0890279908F03DFBEF
:104310000A90754801687548006808F0DEFA089050
:10432000269908F032FB09900A9908F0D6FA0B900A
:104330000C9908F0D2FA4FF0804100E07BE10D903B
:1043400008F023FB1B906C4801684FF07C5008F08C
:1043500016FB099058480168099808F010FB0A906C
:10436000289908F012FB0C906148016861480068C8
:1043700008F0B3FA0890279908F007FB0A9058480C
:1043800001685848006808F0FAFA0890269908F081
:10439000FCFA09900A9908F0A0FA0B900C9908F021
:1043A0009CFA4FF080410D9008F0EFFA1A901B999B
:1043B000084608F0EAFA08901C99084608F0E5FA61
:1043C0000790089908F089FA099008F022FDCDE9D4
:1043D0000A010AF057FBCDE90C0108F02DFD1990F8
:1043E0001A9818903E4801683E48006808F0C7FADD
:1043F0000A90189908F0C9FA0C902F4801684FF0FC
:104400007C5008F0BCFA09902C480168099808F023
:10441000B6FA0A90199908F0B8FA0B900C9908F0BE
:104420005CFA4FF080410D9008F0AFFA14903148DB
:1044300001682F48006808F050FA0A90189908F0AF
:10444000A4FA0C90284801682848006808F097FAF8
:104450000A90199908F099FA0B900C9908F03DFA16
:104460004FF080410D9008F090FA139022480168B7
:104470004FF07C5008F083FA09900F4801680998C2
:1044800008F07DFA0A90189908F07FFA0C90154808
:1044900001681348006808F020FA0A90199908F09A
:1044A00074FA0B900C9908F018FA4FF080410D90B7
:1044B00008F06BFA129021E0CC000020D40000201C
:1044C000680000206C000020700000209800002090
:1044D0009C00002074000020780000207C00002058
:1044E000B8000020C8000020BC000020C40000204C
:1044F000B4000020D0000020C000002013992898AC
:1045000008F043FA0D901299279808F03EFA0C90A3
:104510000D9908F034FAFE4908601299269808F0BF
:1045200034FA0D901499289808F02FFA0C900D99F0
:1045300008F025FAF74908601499279808F025FA39
:104540000D901399269808F020FA0C900D9908F018
:1045500016FAF1490860F148C06C01460C90EC482D
:10456000006808F012FA0D901F9908F0B6F91F9034
:10457000EA48C06C01460C90E648006808F005FA6D
:104580000D90209908F0A9F92090E448C06C0146EC
:104590000C90E148006808F0F8F90D90219908F0B6
:1045A0009CF92190DD48006D00210D9008F06AFC17
:1045B00041D2DA48006D01460C90D548006808F0F9
:1045C000E4F90D90D64801680D9808F086F9D449B1
:1045D0000860D248006D01460C90CE48006808F093
:1045E000D4F90D90CF4801680D9808F076F9CD49BF
:1045F0000860CA48006D01460C90C748006808F082
:10460000C4F90D90C84801680D9808F066F9C649CC
:104610000860C34801681F9808F05FF91F90C148FF
:104620000168209808F059F92090BF480168219846
:1046300008F053F92190BD482199006808F0A5F9C8
:104640000C90BB482099006808F09FF90A90B9487F
:10465000006880F0004008901F9908F096F90990D2
:104660000A9908F08CF90B900C9908F088F90D90D4
:10467000B14801680D9808F088F91190AB4820996D
:10468000006808F082F90C90A9482199006808F0A8
:104690007CF90A90A94801681F9808F076F90990FA
:1046A0000A9908F01AF90B900C9908F068F90D9026
:1046B000A14801680D9808F068F910909B480168BE
:1046C0001F9808F062F90C909A482199006808F048
:1046D0005CF90A9099482099006808F056F9099009
:1046E0000A9908F04CF90B900C9908F0F6F80D9027
:1046F000914801680D9808F048F90F908C480168BE
:104700001F9808F042F90C908A482099006808F038
:104710003CF90A9089482199006808F036F9099017
:104720000A9908F0DAF80B900C9908F028F90D9026
:10473000814801680D9808F028F90E907F4811997A
:10474000006808F0CAF87D4908607A481099006846
:1047500008F0C3F87749086075480F99006808F0B9
:10476000BCF87349086071480E99006808F0B5F804
:104770006E49086008460168006808F006F906906E
:104780006B480168006808F000F904906948016806
:10479000006808F0FAF8029068480168006808F0BC
:1047A000F4F80190029908F098F80390049908F041
:1047B00094F80590069908F090F8079008F029FB06
:1047C000CDE908010AF05EF902460B46CDE90A017F
:1047D00000205B4908F062FACDE90C0108F02CFBDF
:1047E0001D9056481D99006808F0CFF8534908609D
:1047F00050481D99006808F0C8F84E4908604C48B8
:104800001D99006808F0C1F84949086047481D999A
:10481000006808F0BAF8454908604848016800682F
:1048200008F0B3F847490860424801684348006807
:1048300008F0ABF8444908603D4801683F4800680B
:1048400008F0A3F8414900E0C0E00860374801687B
:104850003A48006808F099F83D4908603548016811
:10486000006808F092F83B49086031480168314817
:10487000006808F08AF8384908602C4801682D481B
:10488000006808F082F83549086029480168006826
:1048900008F07BF832490860244801682448006821
:1048A00008F073F82F49086020480168006808F094
:1048B0006CF82D490860274801682248006808F014
:1048C0005EF80A90264801680A9808F058F80B909C
:1048D000254801680B9808F000F80D902148016800
:1048E0001948006807F0F9FF4FF080410B9008F07D
:1048F0004CF80C900D9909F0A7FD1C4988611348EC
:1049000001681648006808F03AF84FF080412FE03F
:104910008000002084000020880000202003002068
:104920008C0000209000002094000020AC000020AB
:10493000A8000020A4000020D8000020A000002033
:104940000000F03FB0000020B4000020B8000020BC
:10495000BC000020C0000020C4000020C8000020CF
:10496000CC000020D0000020D400002064040020EF
:104970000C9008F00AF80D9009F0F6FA80F000416A
:104980001348C161134801681348006807F0A5FF88
:104990000A90124801680A9807F0F1FF0B9010483E
:1049A00001680B9807F0EBFF0D900E4801680E4868
:1049B000006807F092FF4FF080410B9007F0E5FF91
:1049C0000C900D9909F040FD0149086223B000BD2B
:1049D00064040020C0000020B0000020CC000020B3
:1049E000D4000020BC000020C400002070B5FE48A8
:1049F0000078012826D100240AE0204602F011FBAD
:104A0000054608F0C3F9F94941F82400601CC4B216
:104A1000032CF2DBF64A916DF44A106807F0AFFF01
:104A2000F2490860F24A916DF04A506807F0A7FF1A
:104A3000EE494860EE4A916DEC4A906807F09FFF9E
:104A4000EA498860002405E0EA48005DEA49085523
:104A5000601CC4B2032CF7DB00243EE0E34951F8AC
:104A60002400E64908F004FA0ED8E04951F8240081
:104A7000E34908F007FA07D80020DC4941F8240090
:104A80000120DC49085526E00020DA490855D749BD
:104A900051F82400002108F0F5F90ED2D34951F85D
:104AA0002400D64907F06BFF05464FF07E5107F012
:104AB0006CFFCE4941F824000DE0CC4951F82400A8
:104AC000CE4907F00AFF05464FF07E5107F05DFF23
:104AD000C64941F82400601CC4B2032CBEDBC349A4
:104AE0000868C84907F051FFC04908604868C649CE
:104AF00007F04BFFBD4948608868C24907F045FF91
:104B0000BA498860BA4890F8F80001284BD1086883
:104B1000002108F0B7F91AD8B54AD2F80C11BB4AEF
:104B2000106808F0A5F912D8B14AD2F8FC10AF4AC3
:104B3000106807F02AFF0646B54907F026FF05462C
:104B4000B2480168284607F0C8FEB0490860A74986
:104B50000868002108F08CF91DD2A548D0F808019A
:104B600080F00045A9480168284608F081F912D86C
:104B70009F4AD2F8FC109D4A106807F006FF0646CF
:104B8000A34907F002FF0546A0480168284607F040
:104B9000A4FE9E4908609D4908689E49FFF732F8C7
:104BA0009A49086020E091490868002108F06AF9F4
:104BB00009D88F4AD2F80C118C4A106807F0E5FE2C
:104BC0009249086008E08A4AD2F80811874A1068BA
:104BD00007F0DBFE8D4908608C4908688D493C313F
:104BE000FFF710F8894908608148D0F8180180F073
:104BF00000457F49D1F80C2184490868294600F016
:104C00008BF9824908607A4890F8F90001284DD163
:104C100076494868002108F035F91AD8744AD2F864
:104C200014117A4A506808F023F912D8704AD2F861
:104C300000116E4A506807F0A8FE0646744907F056
:104C4000A4FE054671484168284607F046FE6F49B4
:104C5000486066494868002108F00AF91DD2644896
:104C6000D0F8100180F0004568484168284608F0F7
:104C7000FFF812D85E4AD2F800115C4A506807F07B
:104C800084FE0646624907F080FE05465F4841689B
:104C9000284607F022FE5D4948605C4948685D4946
:104CA0001431FEF7AFFF5949486025E04F49486885
:104CB000002108F0E7F808D84D4AD2F814114B4A01
:104CC000506807F062FE5149486048494868002131
:104CD00008F0CEF808D2464AD2F81011434A50687C
:104CE00007F053FE494948604849486849495031EE
:104CF000FEF788FF454948603D48D0F8100180F034
:104D000000453B49D1F8142140494868294600F044
:104D100003F93E494860364890F8FA0001284DD121
:104D200032498868002108F0ADF81AD8304AD2F824
:104D30001C11364A906808F09BF812D82C4AD2F819
:104D400004112A4A906807F020FE0646304907F011
:104D50001CFE05462D488168284607F0BEFD2B49FC
:104D6000886022498868002108F082F81DD2204816
:104D7000D0F8180180F0004524488168284608F0E2
:104D800077F812D81A4AD2F80411184A906807F036
:104D9000FCFD06461E4907F0F8FD05461B488168E4
:104DA000284607F09AFD194988601849886819490A
:104DB0002831FEF727FF154988603DE00B498868D8
:104DC000002108F05FF808D8094AD2F81C11074AF8
:104DD000906807F0DAFD0D49886004498868002171
:104DE00008F046F821D217E030010020900D002095
:104DF00020030020EC000020EF0000200000C04154
:104E00000000C0C16F12833A6F1283BA840D002074
:104E10000AD7A33C0C0D00200F4AD2F818110F4AF4
:104E2000906807F0B2FD0E4988600D4988680D4909
:104E3000FEF7E8FE0A4988600748D0F8180180F0BC
:104E400000450549D1F81C2105498868294600F02C
:104E500063F80349886070BD20030020900D002096
:104E6000840D0020700D0020704710A000F095FF09
:104E700000BFFEE711A000F090FF00BFFEE718A002
:104E800000F08BFF00BFFEE71CA000F086FF00BF14
:104E9000FEE770477047704710B505F095FE10BDEE
:104EA00010B54FF48020FCF7A0F910BD0A4841521C
:104EB00044204641554C542121210A000A4D454DBC
:104EC0004F5259204D414E4147454D454E54204586
:104ED0005843455054494F4E2121210A00000000FB
:104EE0000A425553204641554C542045584345509D
:104EF00054494F4E2121210A000000000A55534118
:104F00004745204641554C54204558434550544947
:104F10004F4E2121210A000070B506460D46144669
:104F20002946304607F0A4FF01D2284670BD21462D
:104F3000304607F0A7FF01D22046F7E73046F5E7F5
:104F40002DE9F04705460E46DDE9087C002007E024
:104F50004FF0000823F8108000F1010808F0FF006E
:104F600005FB02F88045F3DC002027E000241FE069
:104F7000002117E000FB021833F9188000FB0649F6
:104F800037F9199004FB021A3CF91AA009FB0A88A8
:104F90000FFA88F800FB021923F8198001F10108C3
:104FA00008F0FF019142E5DB04F1010808F0FF047D
:104FB000B442DDDB00F1010808F0FF00A842D5DBB8
:104FC000BDE8F08710B504460021204607F05AFFDF
:104FD00005D84FF07C51204607F07FFC10BD4FF004
:104FE0007C51204607F0CBFCF8E770B50446FBF790
:104FF000B1F80546FE4800682044A84203D908F0ED
:1050000025FA06210160FA4800682044F849086042
:10501000002070BD1FB5D2B0002051902AE00021C1
:1050200034AA519842F8201037AA519842F820101B
:105030003AAA519842F8201043AA519842F82010F9
:1050400046AA519842F8201049AA519842F82010D7
:105050004CAA519842F8201000225898801D51996E
:1050600020F811205199589820F811205198401C8F
:10507000C0B2519051980228D1DD00203190329079
:105080003390509066E10020519099E0509800EBE9
:105090004001529800EB8101519851F820000C908A
:1050A000509800EB4001529800EB8101519851F863
:1050B00020000B900C9907F068FC0EAA519942F859
:1050C0002100509800EB4001529800EB810151986B
:1050D00051F820004CA90C90519851F820000B90E9
:1050E0000C9907F0FAFB4CAA519942F821000EA93D
:1050F000519851F8200049A90C90519851F820007E
:105100000B900C9907F0E9FB49AA519942F821004C
:10511000509800EB4001529800EB8101519851F8F2
:1051200020000EA90B90519851F820000A900B997D
:1051300007F02BFC46A90C90519851F8200001462D
:105140000B900C9807F0C9FB46AA519942F8210030
:10515000509800EB4001529800EB8101519851F8B2
:10516000200000210C9007F08DFE01D2012000E00C
:10517000002000EB4001589800EB4101519831F8B4
:105180001000401C84B2509800EB4001529800EB94
:105190008101519851F8200000210C9007F072FE17
:1051A00001D2012000E0002000EB4001589800EB04
:1051B0004101519821F810405198401CC0B25190C3
:1051C000519802287FF762AF509800EB4001529847
:1051D00000EB810040680B90509800EB4001529822
:1051E00050F821000A900B9907F0CFFB0C903399EF
:1051F00007F073FB3390509800EB4001529800EB9E
:10520000810080680B90509800EB4001529850F854
:1052100021000A900B9907F0B8FB0C90329907F027
:105220005CFB3290509800EB4001529800EB8100FB
:1052300080680B90509800EB4001529800EB810081
:1052400040680A900B9907F0A0FB0C90319907F089
:1052500044FB3190509800EB4001529800EB8100E4
:1052600040680B900E980A900B9907F08EFB0C90FB
:105270003B9801460B900C9807F02FFB3B90509801
:1052800000EB4001529800EB810080680B900E9873
:105290000A900B9907F079FB0C903C9801460B9013
:1052A0000C9807F01AFB3C90509800EB4001529884
:1052B00050F821000B900F980A900B9907F065FBAE
:1052C0000C90379801460B900C9807F006FB37902E
:1052D000509800EB4001529800EB810080680B90E1
:1052E0000F980A900B9907F050FB0C9039980146E3
:1052F0000B900C9807F0F1FA3990509800EB4001B0
:10530000529850F821000B9010980A900B9907F0D2
:105310003CFB0C90349801460B900C9807F0DDFA9A
:105320003490509800EB4001529800EB81004068A7
:105330000B9010980A900B9907F027FB0C9035986A
:1053400001460B900C9807F0C8FA35905098401C15
:1053500080B25090539950988842FFF694AE53987B
:1053600007F014FD01460C904FF07E5007F03FFB14
:105370000D900020519027E04CA9519851F8200041
:105380000C900D9907F001FB43AA519942F82100B6
:1053900049A9519851F820000C900D9907F0F5FAA1
:1053A00040AA519942F8210046A9519851F820008D
:1053B0000C900D9907F0E9FA3DAA519942F82100A5
:1053C0005198401CC0B2519051980228D4DD0D99DB
:1053D000339807F0DAFA30900D99329807F0D5FA41
:1053E0002F900D99319807F0D0FA2E903B9801E05C
:1053F000F40000200C900D9907F0C7FA29903C9812
:105400000C900D9907F0C1FA2D9037980C900D99DA
:1054100007F0BBFA2C9039980C900D9907F0B5FA6B
:105420002B9034980C900D9907F0AFFA2A9035988C
:105430000C900D9907F0A9FA289041980B9040988C
:105440000A900B9907F049FA0C90429801460B908C
:105450000C9807F042FA15904FF07C50159907F020
:1054600094FA14903D980A902C9907F036FA0B9014
:105470002A9907F032FA4FF041410C9007F085FA73
:1054800013903E9801460A90299807F026FA0B904F
:10549000289907F022FA4FF041410C9007F075FA75
:1054A00012902B992D9807F018FA0B903F9801460F
:1054B0000A900B9807F011FA4FF041410C9007F059
:1054C00064FA1190002051901AE043A9519851F8C4
:1054D00020101FAA42F820101FA9519851F820004F
:1054E0000C90519851F820000B900C9907F04DFA50
:1054F0001CAA519942F821005198401CC0B2519009
:1055000051980228E1DD1D980B901C980A900B9988
:1055100007F0E3F90C901E9801460B900C9807F0E9
:10552000DCF92790219809900146089007F02DFAA0
:105530000B90209807900146069007F026FA0990F4
:105540001F9807900146069007F01FFA08900999E6
:1055500007F0C3F90A900B9907F0BFF94FF04041EB
:105560000C9007F012FA26902699159807F0B5F9D5
:105570000C90279907F0B1F922902299279807F00B
:10558000FEF94FF07C510C9007F0FFF9259025991A
:10559000149807F0A2F924902299279807F0EFF9C0
:1055A0000A90269907F099F90B90159907F095F94B
:1055B0004FF082410C9007F0E8F9239000204F90C3
:1055C00000BF0020519047E01FA9519851F82000DA
:1055D000014607904FF0804007F0D7F943A90890A3
:1055E000519851F8200001460790089807F0CDF92E
:1055F0001CA90990519851F820000146089009987B
:1056000007F0C0F940A90A90519851F820000146CE
:1056100009900A9807F061F94FF083410B9007F069
:10562000B4F90C90239907F058F916AA519942F849
:10563000210016A9519851F8200000210C9007F084
:1056400017FC05D14FF07E5216A9519841F8202041
:105650005198401CC0B2519051980228B4DD449832
:10566000049020980390049907F08FF906904598CC
:10567000029021980190029907F087F904904098D0
:105680000290249907F029F90390049907F077F91B
:105690000590069907F073F907901F980146069048
:1056A000079807F072F909901C9880F00040049068
:1056B000259907F064F905904398014604900598F0
:1056C00007F063F90790219803902F9907F05DF98F
:1056D000059020980390309907F057F904900599A8
:1056E00007F0FBF80690079907F0F7F8089009997A
:1056F00007F0F3F84FF083410A9007F046F90B905A
:10570000139907F0EAF80C90169801460B900C9844
:1057100007F06DF980F000401990459804902198A9
:105720000390049907F031F90690439802901F986E
:105730000190029907F029F9049041980290249968
:1057400007F0CBF80390049907F019F90590069932
:1057500007F015F90790209801460690079807F082
:1057600014F909901D9880F000400490259907F0E5
:1057700006F90590449801460490059807F005F94C
:105780000790219803902E9907F0FFF805901F9835
:105790000390309907F0F9F80490059907F09DF807
:1057A0000690079907F099F80890099907F095F87D
:1057B0004FF083410A9007F0E8F80B90129907F038
:1057C0008CF80C90179801460B900C9807F00FF985
:1057D00080F000401A904498049020980390049917
:1057E00007F0D3F80690439802901F980190029911
:1057F00007F0CBF8049042980290249907F06DF8D6
:105800000390049907F0BBF80590069907F0B7F8E4
:105810000790219801460690079807F0B6F809907E
:105820001E9880F000400490259907F0A8F8059094
:10583000459801460490059807F0A7F8079020982E
:1058400003902E9907F0A1F805901F9803902F99C7
:1058500007F09BF80490059907F03FF80690079928
:1058600007F03BF80890099907F037F84FF08341AB
:105870000A9007F08AF80B90119907F02EF80C9017
:10588000189801460B900C9807F0B1F880F0004092
:105890001B900020519024E019A9519851F8200044
:1058A0001FA90C90519851F820000B900C9907F00B
:1058B00014F81FAA519942F821001FA9519851F8D4
:1058C00020000C90519851F820000B900C9907F093
:1058D0005CF81CAA519942F821005198401CC0B2B2
:1058E000519051980228D7DD1D980B901C980A9072
:1058F0000B9906F0F2FF0C901E9801460B900C9845
:1059000006F0EBFF27904598099021980890099997
:1059100007F03BF80B904498079020980690079961
:1059200007F033F80990439807901F98069007995D
:1059300007F02BF80890099906F0CFFF0A900B9911
:1059400006F0CBFF4FF040410C9007F01EF8269078
:105950002699159806F0C1FF0C90279906F0BDFF17
:1059600022902299279807F00AF84FF07C510C906A
:1059700007F00BF825902599149806F0AEFF2490B7
:105980002299279806F0FBFF0A90269906F0A5FFBA
:105990000B90159906F0A1FF4FF082410C9006F094
:1059A000F4FF23904F98401C80B24F904F983228BC
:1059B000FFF607AE54994F98884221DA1B98099058
:1059C0000146089006F0E1FF0B901A9807900146F7
:1059D000069006F0DAFF09901998079001460690A4
:1059E00006F0D3FF0890099906F077FF0A900B990B
:1059F00006F073FF0C90559907F044FAFFF4E1ADFF
:105A0000002051900BE01FA9519851F82020519986
:105A1000599840F821205198401CC0B2519051989B
:105A20000228F0DD229807F0F4F9CDE9080109F029
:105A300029F8CDE90A0107F0FFF95A9908604F9853
:105A400056B010BD10B504468549204607F01AFA35
:105A500004D88449204606F092FF10BD82492046B2
:105A600007F006FA04D27F49204606F036FFF4E735
:105A70002046F2E72DE9F04F87B0824600200690DD
:105A800001E00AF1010A9AF800002028F9D09AF8FA
:105A900000000928F5D04FF00008DFF8D0919AF8FF
:105AA00000002D2804D1DFF8C8910AF1010A05E0B1
:105AB0009AF800002B2801D10AF1010A0026374686
:105AC00017E09AF80010A1F1300007F064F9002205
:105AD000684BCDE904013046394607F06DF8CDE951
